{
  "contractName": "BUC",
  "abi": [
    {
      "inputs": [],
      "payable": false,
      "stateMutability": "nonpayable",
      "type": "constructor"
    },
    {
      "anonymous": false,
      "inputs": [
        {
          "indexed": true,
          "internalType": "address",
          "name": "_owner",
          "type": "address"
        },
        {
          "indexed": true,
          "internalType": "address",
          "name": "_spender",
          "type": "address"
        },
        {
          "indexed": false,
          "internalType": "uint256",
          "name": "_value",
          "type": "uint256"
        }
      ],
      "name": "Approval",
      "type": "event"
    },
    {
      "anonymous": false,
      "inputs": [
        {
          "indexed": true,
          "internalType": "address",
          "name": "from",
          "type": "address"
        },
        {
          "indexed": true,
          "internalType": "address",
          "name": "to",
          "type": "address"
        },
        {
          "indexed": false,
          "internalType": "uint256",
          "name": "value",
          "type": "uint256"
        }
      ],
      "name": "Transfer",
      "type": "event"
    },
    {
      "constant": true,
      "inputs": [
        {
          "internalType": "address",
          "name": "",
          "type": "address"
        },
        {
          "internalType": "address",
          "name": "",
          "type": "address"
        }
      ],
      "name": "allowance",
      "outputs": [
        {
          "internalType": "uint256",
          "name": "",
          "type": "uint256"
        }
      ],
      "payable": false,
      "stateMutability": "view",
      "type": "function"
    },
    {
      "constant": true,
      "inputs": [],
      "name": "avgVel",
      "outputs": [
        {
          "internalType": "uint256",
          "name": "",
          "type": "uint256"
        }
      ],
      "payable": false,
      "stateMutability": "view",
      "type": "function"
    },
    {
      "constant": true,
      "inputs": [
        {
          "internalType": "address",
          "name": "",
          "type": "address"
        }
      ],
      "name": "balance",
      "outputs": [
        {
          "internalType": "uint256",
          "name": "",
          "type": "uint256"
        }
      ],
      "payable": false,
      "stateMutability": "view",
      "type": "function"
    },
    {
      "constant": true,
      "inputs": [],
      "name": "decimals",
      "outputs": [
        {
          "internalType": "uint8",
          "name": "",
          "type": "uint8"
        }
      ],
      "payable": false,
      "stateMutability": "view",
      "type": "function"
    },
    {
      "constant": true,
      "inputs": [],
      "name": "name",
      "outputs": [
        {
          "internalType": "string",
          "name": "",
          "type": "string"
        }
      ],
      "payable": false,
      "stateMutability": "view",
      "type": "function"
    },
    {
      "constant": true,
      "inputs": [
        {
          "internalType": "uint256",
          "name": "",
          "type": "uint256"
        }
      ],
      "name": "queue",
      "outputs": [
        {
          "internalType": "uint256",
          "name": "",
          "type": "uint256"
        }
      ],
      "payable": false,
      "stateMutability": "view",
      "type": "function"
    },
    {
      "constant": true,
      "inputs": [],
      "name": "supply",
      "outputs": [
        {
          "internalType": "uint256",
          "name": "",
          "type": "uint256"
        }
      ],
      "payable": false,
      "stateMutability": "view",
      "type": "function"
    },
    {
      "constant": true,
      "inputs": [],
      "name": "symbol",
      "outputs": [
        {
          "internalType": "string",
          "name": "",
          "type": "string"
        }
      ],
      "payable": false,
      "stateMutability": "view",
      "type": "function"
    },
    {
      "constant": true,
      "inputs": [
        {
          "internalType": "address",
          "name": "",
          "type": "address"
        }
      ],
      "name": "time",
      "outputs": [
        {
          "internalType": "uint256",
          "name": "",
          "type": "uint256"
        }
      ],
      "payable": false,
      "stateMutability": "view",
      "type": "function"
    },
    {
      "constant": true,
      "inputs": [],
      "name": "totalSupply",
      "outputs": [
        {
          "internalType": "uint256",
          "name": "",
          "type": "uint256"
        }
      ],
      "payable": false,
      "stateMutability": "view",
      "type": "function"
    },
    {
      "constant": true,
      "inputs": [
        {
          "internalType": "address",
          "name": "account",
          "type": "address"
        }
      ],
      "name": "balanceOf",
      "outputs": [
        {
          "internalType": "uint256",
          "name": "",
          "type": "uint256"
        }
      ],
      "payable": false,
      "stateMutability": "view",
      "type": "function"
    },
    {
      "constant": false,
      "inputs": [
        {
          "internalType": "address",
          "name": "_to",
          "type": "address"
        },
        {
          "internalType": "uint256",
          "name": "_value",
          "type": "uint256"
        }
      ],
      "name": "transfer",
      "outputs": [
        {
          "internalType": "bool",
          "name": "success",
          "type": "bool"
        }
      ],
      "payable": false,
      "stateMutability": "nonpayable",
      "type": "function"
    },
    {
      "constant": false,
      "inputs": [
        {
          "internalType": "address",
          "name": "_from",
          "type": "address"
        },
        {
          "internalType": "address",
          "name": "_to",
          "type": "address"
        },
        {
          "internalType": "uint256",
          "name": "_value",
          "type": "uint256"
        }
      ],
      "name": "transferFrom",
      "outputs": [
        {
          "internalType": "bool",
          "name": "success",
          "type": "bool"
        }
      ],
      "payable": false,
      "stateMutability": "nonpayable",
      "type": "function"
    },
    {
      "constant": false,
      "inputs": [
        {
          "internalType": "address",
          "name": "_spender",
          "type": "address"
        },
        {
          "internalType": "uint256",
          "name": "_value",
          "type": "uint256"
        }
      ],
      "name": "approve",
      "outputs": [
        {
          "internalType": "bool",
          "name": "success",
          "type": "bool"
        }
      ],
      "payable": false,
      "stateMutability": "nonpayable",
      "type": "function"
    },
    {
      "constant": false,
      "inputs": [
        {
          "internalType": "uint256",
          "name": "_velocity",
          "type": "uint256"
        }
      ],
      "name": "enqueue",
      "outputs": [],
      "payable": false,
      "stateMutability": "nonpayable",
      "type": "function"
    },
    {
      "constant": false,
      "inputs": [],
      "name": "dequeue",
      "outputs": [],
      "payable": false,
      "stateMutability": "nonpayable",
      "type": "function"
    },
    {
      "constant": false,
      "inputs": [
        {
          "internalType": "uint256",
          "name": "_value",
          "type": "uint256"
        }
      ],
      "name": "velocity",
      "outputs": [],
      "payable": false,
      "stateMutability": "nonpayable",
      "type": "function"
    },
    {
      "constant": false,
      "inputs": [
        {
          "internalType": "address",
          "name": "_lost",
          "type": "address"
        }
      ],
      "name": "mine",
      "outputs": [],
      "payable": false,
      "stateMutability": "nonpayable",
      "type": "function"
    }
  ],
  "bytecode": "0x60806040526040518060400160405280601381526020017f426173696320556e69766573616c20436f696e000000000000000000000000008152506000908051906020019062000051929190620001d0565b506040518060400160405280600381526020017f4255430000000000000000000000000000000000000000000000000000000000815250600190805190602001906200009f929190620001d0565b506012600260006101000a81548160ff021916908360ff160217905550600260009054906101000a900460ff1660ff16600a0a633b9aca000260035568056bc75e2d631000006008556001600b556001600d556000600e553480156200010457600080fd5b50600854600460003373ffffffffffffffffffffffffffffffffffffffff1673ffffffffffffffffffffffffffffffffffffffff1681526020019081526020016000208190555042600781905550620001626200016860201b60201c565b6200027f565b60008090505b60648110156200019f5762000191670de0b6b3a7640000620001a260201b60201c565b80806001019150506200016e565b50565b6001600e6000828254019250508190555080600c6000600e5481526020019081526020016000208190555050565b828054600181600116156101000203166002900490600052602060002090601f016020900481019282601f106200021357805160ff191683800117855562000244565b8280016001018555821562000244579182015b828111156200024357825182559160200191906001019062000226565b5b50905062000253919062000257565b5090565b6200027c91905b80821115620002785760008160009055506001016200025e565b5090565b90565b6113cd806200028f6000396000f3fe608060405234801561001057600080fd5b50600436106101165760003560e01c806370a08231116100a257806395d89b411161007157806395d89b4114610462578063a9059cbb146104e5578063dd62ed3e1461054b578063ddf0b009146105c3578063e3d670d71461060557610116565b806370a08231146103645780637c67a3e2146103bc5780638192324014610414578063957908d11461045857610116565b80631ffc735d116100e95780631ffc735d1461024057806323b872dd1461026e578063313ce567146102f45780634ed8ceeb146103185780636f2407741461033657610116565b8063047fc9aa1461011b57806306fdde0314610139578063095ea7b3146101bc57806318160ddd14610222575b600080fd5b61012361065d565b6040518082815260200191505060405180910390f35b610141610663565b6040518080602001828103825283818151815260200191508051906020019080838360005b83811015610181578082015181840152602081019050610166565b50505050905090810190601f1680156101ae5780820380516001836020036101000a031916815260200191505b509250505060405180910390f35b610208600480360360408110156101d257600080fd5b81019080803573ffffffffffffffffffffffffffffffffffffffff16906020019092919080359060200190929190505050610701565b604051808215151515815260200191505060405180910390f35b61022a6107f3565b6040518082815260200191505060405180910390f35b61026c6004803603602081101561025657600080fd5b81019080803590602001909291905050506107f9565b005b6102da6004803603606081101561028457600080fd5b81019080803573ffffffffffffffffffffffffffffffffffffffff169060200190929190803573ffffffffffffffffffffffffffffffffffffffff16906020019092919080359060200190929190505050610827565b604051808215151515815260200191505060405180910390f35b6102fc610952565b604051808260ff1660ff16815260200191505060405180910390f35b610320610965565b6040518082815260200191505060405180910390f35b6103626004803603602081101561034c57600080fd5b810190808035906020019092919050505061096b565b005b6103a66004803603602081101561037a57600080fd5b81019080803573ffffffffffffffffffffffffffffffffffffffff169060200190929190505050610a94565b6040518082815260200191505060405180910390f35b6103fe600480360360208110156103d257600080fd5b81019080803573ffffffffffffffffffffffffffffffffffffffff169060200190929190505050610af3565b6040518082815260200191505060405180910390f35b6104566004803603602081101561042a57600080fd5b81019080803573ffffffffffffffffffffffffffffffffffffffff169060200190929190505050610b0b565b005b610460610cd8565b005b61046a610d15565b6040518080602001828103825283818151815260200191508051906020019080838360005b838110156104aa57808201518184015260208101905061048f565b50505050905090810190601f1680156104d75780820380516001836020036101000a031916815260200191505b509250505060405180910390f35b610531600480360360408110156104fb57600080fd5b81019080803573ffffffffffffffffffffffffffffffffffffffff16906020019092919080359060200190929190505050610db3565b604051808215151515815260200191505060405180910390f35b6105ad6004803603604081101561056157600080fd5b81019080803573ffffffffffffffffffffffffffffffffffffffff169060200190929190803573ffffffffffffffffffffffffffffffffffffffff169060200190929190505050610dca565b6040518082815260200191505060405180910390f35b6105ef600480360360208110156105d957600080fd5b8101908080359060200190929190505050610def565b6040518082815260200191505060405180910390f35b6106476004803603602081101561061b57600080fd5b81019080803573ffffffffffffffffffffffffffffffffffffffff169060200190929190505050610e07565b6040518082815260200191505060405180910390f35b60095481565b60008054600181600116156101000203166002900480601f0160208091040260200160405190810160405280929190818152602001828054600181600116156101000203166002900480156106f95780601f106106ce576101008083540402835291602001916106f9565b820191906000526020600020905b8154815290600101906020018083116106dc57829003601f168201915b505050505081565b600081600560003373ffffffffffffffffffffffffffffffffffffffff1673ffffffffffffffffffffffffffffffffffffffff16815260200190815260200160002060008573ffffffffffffffffffffffffffffffffffffffff1673ffffffffffffffffffffffffffffffffffffffff168152602001908152602001600020819055508273ffffffffffffffffffffffffffffffffffffffff163373ffffffffffffffffffffffffffffffffffffffff167f8c5be1e5ebec7d5bd14f71427d1e84f3dd0314c0f7b2291e5b200ac8c7c3b925846040518082815260200191505060405180910390a36001905092915050565b60035481565b6001600e6000828254019250508190555080600c6000600e5481526020019081526020016000208190555050565b6000600560008573ffffffffffffffffffffffffffffffffffffffff1673ffffffffffffffffffffffffffffffffffffffff16815260200190815260200160002060003373ffffffffffffffffffffffffffffffffffffffff1673ffffffffffffffffffffffffffffffffffffffff168152602001908152602001600020548211156108b257600080fd5b81600560008673ffffffffffffffffffffffffffffffffffffffff1673ffffffffffffffffffffffffffffffffffffffff16815260200190815260200160002060003373ffffffffffffffffffffffffffffffffffffffff1673ffffffffffffffffffffffffffffffffffffffff16815260200190815260200160002060008282540392505081905550610947848484610e1f565b600190509392505050565b600260009054906101000a900460ff1681565b600b5481565b61012c6007544203101561098e5780600960008282540192505081905550610a91565b61012c60075442031115610a905742600781905550600354670de0b6b3a764000060095402816109ba57fe5b04600a819055506109cc600a546107f9565b6109d4610cd8565b60006009819055506109e461134c565b670de0b6b3a7640000600b541115610a305768056bc75e2d631000006003546064670de0b6b3a7640000600b5403020281610a1b57fe5b04600360008282540192505081905550610a8f565b670de0b6b3a7640000600b541015610a8e57600068056bc75e2d631000006003546064600b54670de0b6b3a764000003020281610a6957fe5b046003540390506b033b2e3c9fd0803ce8000000811115610a8c57806003819055505b505b5b5b5b50565b600068056bc75e2d63100000600354600460008573ffffffffffffffffffffffffffffffffffffffff1673ffffffffffffffffffffffffffffffffffffffff168152602001908152602001600020540281610aeb57fe5b049050919050565b60066020528060005260406000206000915090505481565b610384600660008373ffffffffffffffffffffffffffffffffffffffff1673ffffffffffffffffffffffffffffffffffffffff16815260200190815260200160002054420311610bc3576040517f08c379a00000000000000000000000000000000000000000000000000000000081526004018080602001828103825260168152602001807f7468697320616464726573732069736e74206c6f73740000000000000000000081525060200191505060405180910390fd5b600460008273ffffffffffffffffffffffffffffffffffffffff1673ffffffffffffffffffffffffffffffffffffffff16815260200190815260200160002054600460003373ffffffffffffffffffffffffffffffffffffffff1673ffffffffffffffffffffffffffffffffffffffff16815260200190815260200160002060008282540192505081905550600460008273ffffffffffffffffffffffffffffffffffffffff1673ffffffffffffffffffffffffffffffffffffffff16815260200190815260200160002060009055600660008273ffffffffffffffffffffffffffffffffffffffff1673ffffffffffffffffffffffffffffffffffffffff1681526020019081526020016000206000905550565b600d54600e541015610ce957600080fd5b600c6000600d548152602001908152602001600020600090556001600d60008282540192505081905550565b60018054600181600116156101000203166002900480601f016020809104026020016040519081016040528092919081815260200182805460018160011615610100020316600290048015610dab5780601f10610d8057610100808354040283529160200191610dab565b820191906000526020600020905b815481529060010190602001808311610d8e57829003601f168201915b505050505081565b6000610dc0338484610e1f565b6001905092915050565b6005602052816000526040600020602052806000526040600020600091509150505481565b600c6020528060005260406000206000915090505481565b60046020528060005260406000206000915090505481565b60006003546064600260009054906101000a900460ff1660ff16600a0a84020281610e4657fe5b0490506000811415610ec0576040517f08c379a000000000000000000000000000000000000000000000000000000000815260040180806020018281038252601c8152602001807f6e6f7420656e6f756768207374616b6520746f207472616e736665720000000081525060200191505060405180910390fd5b600073ffffffffffffffffffffffffffffffffffffffff168373ffffffffffffffffffffffffffffffffffffffff161415610efa57600080fd5b80600460008673ffffffffffffffffffffffffffffffffffffffff1673ffffffffffffffffffffffffffffffffffffffff168152602001908152602001600020541015610f4657600080fd5b600460008473ffffffffffffffffffffffffffffffffffffffff1673ffffffffffffffffffffffffffffffffffffffff1681526020019081526020016000205481600460008673ffffffffffffffffffffffffffffffffffffffff1673ffffffffffffffffffffffffffffffffffffffff16815260200190815260200160002054011015610fd357600080fd5b6000600460008573ffffffffffffffffffffffffffffffffffffffff1673ffffffffffffffffffffffffffffffffffffffff16815260200190815260200160002054600460008773ffffffffffffffffffffffffffffffffffffffff1673ffffffffffffffffffffffffffffffffffffffff1681526020019081526020016000205401905042600660003373ffffffffffffffffffffffffffffffffffffffff1673ffffffffffffffffffffffffffffffffffffffff168152602001908152602001600020819055506110a58361096b565b81600460008773ffffffffffffffffffffffffffffffffffffffff1673ffffffffffffffffffffffffffffffffffffffff1681526020019081526020016000206000828254039250508190555081600460008673ffffffffffffffffffffffffffffffffffffffff1673ffffffffffffffffffffffffffffffffffffffff168152602001908152602001600020600082825401925050819055506064600460008773ffffffffffffffffffffffffffffffffffffffff1673ffffffffffffffffffffffffffffffffffffffff16815260200190815260200160002054101561125757600460008673ffffffffffffffffffffffffffffffffffffffff1673ffffffffffffffffffffffffffffffffffffffff16815260200190815260200160002054600460008673ffffffffffffffffffffffffffffffffffffffff1673ffffffffffffffffffffffffffffffffffffffff16815260200190815260200160002060008282540192505081905550600460008673ffffffffffffffffffffffffffffffffffffffff1673ffffffffffffffffffffffffffffffffffffffff168152602001908152602001600020600090555b8373ffffffffffffffffffffffffffffffffffffffff168573ffffffffffffffffffffffffffffffffffffffff167fddf252ad1be2c89b69c2b068fc378daa952ba7f163c4a11628f55a4df523b3ef856040518082815260200191505060405180910390a380600460008673ffffffffffffffffffffffffffffffffffffffff1673ffffffffffffffffffffffffffffffffffffffff16815260200190815260200160002054600460008873ffffffffffffffffffffffffffffffffffffffff1673ffffffffffffffffffffffffffffffffffffffff16815260200190815260200160002054011461134557fe5b5050505050565b600080600d5490505b600e54811161138357600c600082815260200190815260200160002054820191508080600101915050611355565b506064818161138e57fe5b04600b819055505056fea265627a7a72315820e8a86c402fa3cfb94e9152d61960f0b687811f1e176a6f07f4f1e1b0722bd58e64736f6c63430005100032",
  "source": "//SPDX-License-Identifier: MIT\r\npragma solidity >=0.4.22 <0.8.4;\r\n\r\ncontract BUC {\r\n    //ERC20\r\n\r\n    // Public variables of the token\r\n    string public name = \"Basic Univesal Coin\";\r\n    string public symbol = \"BUC\";\r\n    uint8 public decimals = 18;\r\n    // 18 decimals is the strongly suggested default, avoid changing it\r\n    uint256 public totalSupply = 10**9 * 10**uint256(decimals);\r\n\r\n    // This creates an array with all balances\r\n    mapping(address => uint256) public balance;\r\n    mapping(address => mapping(address => uint256)) public allowance;\r\n    \r\n    //storing time of latest tx for each address \r\n    mapping(address => uint256) public time;\r\n    // This generates a public event on the blockchain that will notify clients\r\n    event Transfer(address indexed from, address indexed to, uint256 value);\r\n\r\n    // This generates a public event on the blockchain that will notify clients\r\n    event Approval(\r\n        address indexed _owner,\r\n        address indexed _spender,\r\n        uint256 _value\r\n    );\r\n    \r\n    \r\n    //time stamp of each day begining\r\n    uint256 tstamp;\r\n    \r\n    //total share ,that is 100% in the economy\r\n    uint Tshare = 100 * 10**18;\r\n    \r\n    /**\r\n     * Constructor function\r\n     *\r\n     * Initializes contract with initial supply tokens to the creator of the contract\r\n     */\r\n    constructor() public{ \r\n        balance[msg.sender] = Tshare; // Give the creator all stakes\r\n        tstamp = now;\r\n        constInit();\r\n    }\r\n    \r\n    function balanceOf(address account) public view returns(uint256){\r\n        return (balance[account]*totalSupply)/(10**20);\r\n    }\r\n\r\n    /**\r\n     * Internal transfer, only can be called by this contract\r\n     */\r\n    function _transfer(\r\n        address _from,\r\n        address _to,\r\n        uint256 _value\r\n    ) internal {\r\n        \r\n        uint256 _val;\r\n        //converting value to share\r\n        _val = ((_value * 10**uint256(decimals) * 100)/totalSupply);\r\n        \r\n        //checking for 0 tranfer\r\n        require(_val!=0,\"not enough stake to transfer\");\r\n        \r\n        // Prevent transfer to 0x0 address. Use burn() instead\r\n        require(_to != address(0x0));\r\n        \r\n        // Check if the sender has enough stake\r\n        require(balance[_from] >= _val);\r\n        \r\n        // Check for overflows\r\n        require(balance[_to] + _val >= balance[_to]);\r\n        \r\n        // Save this for an assertion in the future\r\n        uint256 previousBalances = balance[_from] + balance[_to];\r\n        \r\n        //updating time of their latest transaction\r\n        time[msg.sender] = now;\r\n        \r\n        //calling velocity update avg velocity\r\n        velocity(_value);\r\n        \r\n        // Subtract from the sender\r\n        balance[_from] -= _val;\r\n        \r\n        // Add the same to the recipient\r\n        balance[_to] += _val;\r\n        \r\n        //cleaning accounts if less amount available in senders wallet\r\n        if(balance[_from] < 100)\r\n        {\r\n            balance[_to] += balance[_from];\r\n            delete balance[_from];\r\n        }\r\n        \r\n        emit Transfer(_from, _to, _value);\r\n        // Asserts are used to use static analysis to find bugs in your code. They should never fail\r\n        assert(balance[_from] + balance[_to] == previousBalances);\r\n    }\r\n\r\n    /**\r\n     * Transfer tokens\r\n     *\r\n     * Send '_value' tokens to '_to' from your account\r\n     *\r\n     * @param _to The address of the recipient\r\n     * @param _value the amount to send\r\n     */\r\n    function transfer(address _to, uint256 _value)\r\n        public\r\n        returns (bool success)\r\n    {\r\n        _transfer(msg.sender, _to, _value);\r\n        return true;\r\n    }\r\n\r\n    /**\r\n     * Transfer tokens from other address\r\n     *\r\n     * Send '_value' tokens to '_to' on behalf of '_from'\r\n     *\r\n     * @param _from The address of the sender\r\n     * @param _to The address of the recipient\r\n     * @param _value the amount to send\r\n     */\r\n    function transferFrom(\r\n        address _from,\r\n        address _to,\r\n        uint256 _value\r\n    ) public returns (bool success) {\r\n        require(_value <= allowance[_from][msg.sender]); // Check allowance\r\n        allowance[_from][msg.sender] -= _value;\r\n        _transfer(_from, _to, _value);\r\n        return true;\r\n    }\r\n\r\n    /**\r\n     * Set allowance for other address\r\n     *\r\n     * Allows '_spender' to spend no more than '_value' tokens on your behalf\r\n     *\r\n     * @param _spender The address authorized to spend\r\n     * @param _value the max amount they can spend\r\n     */\r\n    function approve(address _spender, uint256 _value)\r\n        public\r\n        returns (bool success)\r\n    {\r\n        allowance[msg.sender][_spender] = _value;\r\n        emit Approval(msg.sender, _spender, _value);\r\n        return true;\r\n    }\r\n    \r\n    //traded volume in one day\r\n    uint public supply; \r\n    \r\n    //velocity of one day\r\n    uint Velocity;\r\n    \r\n    //avg Velocity of 100 days\r\n    uint public avgVel = 1;\r\n    \r\n    //queue data structure to store the 100 latest velocities\r\n    mapping(uint256 => uint256) public queue;\r\n    \r\n    //Initializing values to finrst and last\r\n    uint256 first = 1;\r\n    uint256 last = 0;\r\n    \r\n    //function to add elements into queue\r\n    function enqueue(uint _velocity) public {\r\n        last += 1;\r\n        queue[last] = _velocity;\r\n    }\r\n    \r\n    //function to delete elements form queue\r\n    function dequeue() public{\r\n        require(last >= first);  // non-empty queue\r\n        delete queue[first];\r\n        first += 1;\r\n    }\r\n    \r\n    //function to find avg velocity\r\n    function avgVelocity() internal {\r\n        \r\n        uint Vsum;\r\n        for(uint i=first; i<=last; i++)\r\n        {\r\n            Vsum += queue[i];\r\n        }\r\n        avgVel = (Vsum/100);\r\n    }\r\n\r\n    function velocity(uint _value) public{\r\n        if(now - tstamp < 300)\r\n        {\r\n            //stores that days trade volume\r\n            supply += _value;\r\n        }\r\n        else if(now - tstamp > 300){\r\n            \r\n            tstamp = now;\r\n            \r\n            //calculating Velocity of that day\r\n            Velocity = ((supply * 10**18)/totalSupply);\r\n            \r\n            //adding new element to queue\r\n            enqueue(Velocity);\r\n            \r\n            //deleting first element\r\n            dequeue();\r\n            \r\n            //Initializes supply to 0\r\n            supply = 0;\r\n            \r\n            //updates avg velocity\r\n            avgVelocity();\r\n            \r\n            //updating totalSupply\r\n            if(avgVel > 10 ** 18)\r\n            {\r\n                totalSupply += ((((avgVel - 10 ** 18)*100)*totalSupply)/10**20);\r\n            }\r\n            else if(avgVel < 10 ** 18){\r\n                uint uSupply = totalSupply - ((((10 ** 18 - avgVel)*100)*totalSupply)/10**20);\r\n                if(uSupply > 10**9 * 10**18)\r\n                    totalSupply = uSupply;\r\n            }\r\n        }\r\n    }\r\n    \r\n    //function which would only used once to assign 1 to first 100 queue elements\r\n    function constInit() internal{\r\n        for(uint i=0; i<100; i++)\r\n        {\r\n            enqueue(10**18);\r\n        }\r\n    }\r\n    \r\n    //function to mine tokens\r\n    function mine(address _lost) public{\r\n        require((now - time[_lost]) > 900,\"this address isnt lost\");\r\n        balance[msg.sender] += balance[_lost];\r\n        delete balance[_lost];\r\n        delete time[_lost];\r\n    }\r\n}",
  "sourcePath": "D:/projects/BUC/contracts/BUC.sol",
  "compiler": {
    "name": "solc",
    "version": "0.5.16+commit.9c3226ce.Emscripten.clang"
  },
  "schemaVersion": "3.4.1",
  "updatedAt": "2021-06-28T12:58:18.924Z",
  "networkType": "ethereum",
  "devdoc": {
    "methods": {
      "approve(address,uint256)": {
        "params": {
          "_spender": "The address authorized to spend",
          "_value": "the max amount they can spend"
        }
      },
      "transfer(address,uint256)": {
        "params": {
          "_to": "The address of the recipient",
          "_value": "the amount to send"
        }
      },
      "transferFrom(address,address,uint256)": {
        "params": {
          "_from": "The address of the sender",
          "_to": "The address of the recipient",
          "_value": "the amount to send"
        }
      }
    }
  },
  "userdoc": {
    "methods": {
      "approve(address,uint256)": {
        "notice": "Set allowance for other address      * Allows '_spender' to spend no more than '_value' tokens on your behalf "
      },
      "constructor": "Constructor function      * Initializes contract with initial supply tokens to the creator of the contract",
      "transfer(address,uint256)": {
        "notice": "Transfer tokens      * Send '_value' tokens to '_to' from your account "
      },
      "transferFrom(address,address,uint256)": {
        "notice": "Transfer tokens from other address      * Send '_value' tokens to '_to' on behalf of '_from' "
      }
    }
  }
}